:100000000C9434000C9449000C9449000C94490061
:100010000C9449000C9449000C9449000C9449003C
:100020000C9449000C9449000C9449000C9449002C
:100030000C9449000C9449000C9449000C9449001C
:100040000C9449000C9449000C9449000C9449000C
:100050000C9449000C9449000C9449000C944900FC
:100060000C9449000C94490011241FBECFEFD8E036
:10007000DEBFCDBF13E0A0E0B1E0EAE0F5E102C0F1
:1000800005900D92AC30B107D9F70E949F000C94F7
:10009000830A0C940000CF93DF9300D000D0CDB73B
:1000A000DEB769837A838B839C8380E00F900F9007
:1000B0000F900F90DF91CF910895CF93DF9300D0F1
:1000C000CDB7DEB79A83898380E00F900F90DF91E0
:1000D000CF910895CF93DF9300D0CDB7DEB79A8349
:1000E000898380E00F900F90DF91CF910895CF9397
:1000F000DF9300D0CDB7DEB79A83898380E00F907D
:100100000F90DF91CF910895CF93DF9300D0CDB7BB
:10011000DEB79A83898380E00F900F90DF91CF91B3
:100120000895CF93DF93CDB7DEB760E072EC81E046
:1001300090E00E944B000000DF91CF910895CF9393
:10014000DF93CDB7DEB70E949100FFCFCF93DF934F
:10015000CDB7DEB72F970FB6F894DEBF0FBECDBF79
:100160009D878C877F876E871A8219826EC08981EE
:100170009A81880F991F880F991F2C853D85820FC2
:10018000931F29813A81220F331F220F331F4E857F
:100190005F85240F351FF9012081FC0120838981AF
:1001A0009A81880F991F880F991F01962C853D858C
:1001B000820F931F29813A81220F331F220F331F91
:1001C0002F5F3F4F4E855F85240F351FF90120813A
:1001D000FC01208389819A81880F991F880F991FBC
:1001E00002962C853D85820F931F29813A81220F2B
:1001F000331F220F331F2E5F3F4F4E855F85240F25
:10020000351FF9012081FC01208389819A81880FA3
:10021000991F880F991F03962C853D85820F931F88
:1002200029813A81220F331F220F331F2D5F3F4F49
:100230004E855F85240F351FF9012081FC01208345
:1002400089819A8101969A83898389819A81049709
:1002500008F48DCF84E090E09A838983D6C08981A9
:100260009A818150904C880F991F880F991F9C8309
:100270008B832C853D858B819C81820F931FFC0194
:10028000808188878B819C8101962C853D85820F9A
:10029000931FFC01808189878B819C8102962C852C
:1002A0003D85820F931FFC0180818A878B819C8111
:1002B00003962C853D85820F931FFC0180818B87DF
:1002C00089819A8183709927892BB9F588858D83D7
:1002D000898588878A8589878B858A878D818B87A1
:1002E0008885882F90E080509F4FFC01808188870F
:1002F0008985882F90E080509F4FFC0180818987FD
:100300008A85882F90E080509F4FFC0180818A87EA
:100310008B85882F90E080509F4FFC0180818B87D8
:10032000288589819A81969587959695879580509D
:100330009D4FFC0180818227888789819A81880F5F
:10034000991F880F991F9F838E8389819A8184507A
:10035000904C880F991F880F991F9C838B832C8545
:100360003D858E819F81820F931F4C855D852B81FA
:100370003C81240F351FF901308128852327FC019A
:1003800020838E819F8101962C853D85820F931F4E
:100390002B813C812F5F3F4F4C855D85240F351F9E
:1003A000F901308129852327FC0120838E819F81DB
:1003B00002962C853D85820F931F2B813C812E5FF9
:1003C0003F4F4C855D85240F351FF90130812A850B
:1003D0002327FC0120838E819F8103962C853D85F8
:1003E000820F931F2B813C812D5F3F4F4C855D8594
:1003F000240F351FF90130812B852327FC01208331
:1004000089819A8101969A83898389819A818C97BF
:1004100008F425CF00002F960FB6F894DEBF0FBE6C
:10042000CDBFDF91CF910895CF93DF9300D000D05F
:10043000CDB7DEB79A8389837C836B8389819A8168
:100440002B813C81B9010E94A60000000F900F9003
:100450000F900F90DF91CF910895CF93DF9300D04D
:1004600000D000D0CDB7DEB79A8389837C836B83BD
:100470005E834D8389819A812B813C81B9010E94E1
:10048000A60089819A8180559F4F2D813E8140E150
:1004900050E0B9010E947A0A000026960FB6F8943F
:1004A000DEBF0FBECDBFDF91CF910895CF93DF9315
:1004B00000D000D0CDB7DEB79A8389837C836B836D
:1004C00089819A8180559F4F2B813C8140E150E08A
:1004D000B9010E947A0A00000F900F900F900F90C0
:1004E000DF91CF910895CF93DF93CDB7DEB72797F4
:1004F0000FB6F894DEBF0FBECDBF8B837D836C83B8
:100500005F834E83198250C01A8247C08981282F89
:1005100030E08A81882F90E04981642F70E04A8121
:10052000442F50E0EC81FD81660F771F660F771F27
:100530006E0F7F1F460F571FDA01EC914B81442F3E
:1005400050E0BA01660F771F660F771F4981442F6D
:1005500050E0460F571FBA01660F771F660F771FCF
:100560004A81442F50E0460F571FBA014E815F81E8
:10057000460F571FDA014C916E2F64274C815D8125
:10058000220F331F220F331F240F351F820F931F9B
:10059000FC0160838A818F5F8A838A81843008F4BA
:1005A000B5CF89818F5F89838981843008F4ACCF8E
:1005B000000027960FB6F894DEBF0FBECDBFDF91C7
:1005C000CF910895CF93DF9300D000D0CDB7DEB7A1
:1005D0009C838B83198235C01A822DC08A81282F73
:1005E00030E08981882F90E04A81642F70E0498152
:1005F000442F50E0EB81FC81660F771F660F771F59
:100600006E0F7F1F460F571FFA014081442F50E0A5
:1006100040505F4FFA0160814B815C81220F331F94
:10062000220F331F240F351F820F931FFC0160839D
:100630008A818F5F8A838A81843080F289818F5F8B
:1006400089838981843040F200000F900F900F90D1
:100650000F90DF91CF910895CF93DF9300D01F9239
:10066000CDB7DEB79B838A838A819B81FC01818120
:1006700089838A819B81FC0125818A819B81FC0180
:1006800021838A819B81FC0121858A819B81FC01D8
:1006900025838A819B81FC0125858A819B81FC01C0
:1006A00021878A819B812981FC0125878A819B8101
:1006B000FC01828189838A819B81FC0122858A8158
:1006C0009B81FC0122838A819B812981FC012287F5
:1006D0008A819B81FC01868189838A819B81FC01BF
:1006E00026858A819B81FC0126838A819B812981C1
:1006F000FC0126878A819B81FC01838189838A8111
:100700009B81FC0127858A819B81FC0123838A814F
:100710009B81FC0123858A819B81FC0127878A813B
:100720009B81FC0127818A819B81FC0123878A812F
:100730009B812981FC01278300000F900F900F906F
:10074000DF91CF910895CF93DF931F92CDB7DEB79E
:1007500089838981882F90E0880F991F282F8981AC
:10076000982F991F9927991F8BE1989F802D11240D
:1007700082270F90DF91CF910895CF93DF9300D020
:1007800000D000D0CDB7DEB79E838D8319824BC1D8
:100790008981882F90E02D813E81880F991F880FD5
:1007A000991F820F931FFC0180818A838981882F82
:1007B00090E02D813E81880F991F880F991F820F2D
:1007C000931FFC0140818981882F90E02D813E811B
:1007D000880F991F880F991F820F931F0196FC01A4
:1007E000808148278981882F90E02D813E81880F64
:1007F000991F880F991F820F931F0296FC01808119
:1008000048278981882F90E02D813E81880F991F8C
:10081000880F991F820F931F0396FC018081842704
:100820008B838981882F90E02D813E81880F991FCD
:10083000880F991F820F931FFC0140818981882FA7
:1008400090E02D813E81880F991F880F991F820F9C
:10085000931F0196FC01808184278C838C810E94E8
:10086000A3038C838981882F90E02981222F30E097
:100870004D815E81220F331F220F331F240F351F3E
:10088000F90130814C812B812427432F42272D8170
:100890003E81880F991F880F991F820F931FFC01BB
:1008A00040838981882F90E02D813E81880F991F98
:1008B000880F991F820F931F0196FC014081898147
:1008C000882F90E02D813E81880F991F880F991FF6
:1008D000820F931F0296FC01808184278C838C8178
:1008E0000E94A3038C838981882F90E02981222F85
:1008F00030E04D815E81220F331F220F331F240F02
:10090000351F2F5F3F4FF90130814C812B81242708
:10091000432F42272D813E81880F991F880F991FF1
:10092000820F931F0196FC0140838981882F90E0FC
:100930002D813E81880F991F880F991F820F931F69
:100940000296FC0140818981882F90E02D813E81B3
:10095000880F991F880F991F820F931F0396FC0120
:10096000808184278C838C810E94A3038C8389815E
:10097000882F90E02981222F30E04D815E81220F67
:10098000331F220F331F240F351F2E5F3F4FF901F6
:1009900030814C812B812427432F42272D813E819A
:1009A000880F991F880F991F820F931F0296FC01D1
:1009B00040838981882F90E02D813E81880F991F87
:1009C000880F991F820F931F0396FC0190818A81E3
:1009D00089278C838C810E94A3038C838981882F33
:1009E00090E02981222F30E04D815E81220F331F5C
:1009F000220F331F240F351F2D5F3F4FF901308128
:100A00004C812B812427432F42272D813E81880F43
:100A1000991F880F991F820F931F0396FC01408333
:100A200089818F5F89838981843008F4B1CE000089
:100A300026960FB6F894DEBF0FBECDBFDF91CF91E3
:100A400008950F931F93CF93DF93CDB7DEB7289709
:100A50000FB6F894DEBF0FBECDBF98878F831A8282
:100A6000198240C22F81388589819A81880F991F08
:100A7000880F991F820F931FFC0180818B832F8128
:100A8000388589819A81880F991F880F991F820F55
:100A9000931F0196FC0180818C832F813885898189
:100AA0009A81880F991F880F991F820F931F0296B2
:100AB000FC0180818D832F81388589819A81880FFF
:100AC000991F880F991F820F931F0396FC01808145
:100AD0008E838B810E94A3030E94A3030E94A30321
:100AE0000E94A3038C810E94A3030E94A3038C8114
:100AF0000E94A3030E94A3030E94A3030E94A303D6
:100B00008D810E94A3038D810E94A3030E94A303F1
:100B10000E94A3030E94A3038E810E94A3038E81DF
:100B20000E94A3030E94A3038E810E94A3030E943C
:100B3000A3030E94A3030E94A3038B810E94A3032B
:100B4000182F8B810E94A3030E94A30318278B8177
:100B50000E94A3030E94A3030E94A30318278C8171
:100B60000E94A303982F8C81092F08278C810E9453
:100B7000A3030E94A3030E94A303802718278D814B
:100B80000E94A3030E94A303982F8D81092F082799
:100B90008D810E94A3030E94A3030E94A3038027C8
:100BA00018278E810E94A3030E94A3030E94A3031F
:100BB000982F8E818927412F48272F813885898159
:100BC0009A81880F991F880F991F820F931FFC012C
:100BD00040838B810E94A3038B810E94A3030E9408
:100BE000A3038B810E94A3030E94A3030E94A3037B
:100BF0000E94A3038C810E94A3030E94A3030E946E
:100C0000A3030E94A3038D810E94A3030E94A30358
:100C10008D810E94A3030E94A3030E94A3030E944C
:100C2000A3038E810E94A3038E810E94A3030E94CE
:100C3000A3030E94A3030E94A3038B810E94A3032A
:100C40000E94A3030E94A303982F8B81192F1827BA
:100C50008C810E94A303082F8C810E94A3030E9411
:100C6000A30308278C810E94A3030E94A3030E9470
:100C7000A303802718278D810E94A303982F8D81BD
:100C8000092F08278D810E94A3030E94A3030E94BD
:100C9000A303802718278E810E94A3030E94A30329
:100CA000982F8E81092F08278E810E94A3030E940E
:100CB000A3030E94A3038027412F48272F81388553
:100CC00089819A81880F991F880F991F820F931F1E
:100CD0000196FC0140838B810E94A3038B810E94BB
:100CE000A3030E94A3030E94A3030E94A3038C8179
:100CF0000E94A3038C810E94A3030E94A3038C8102
:100D00000E94A3030E94A3030E94A3030E94A303C3
:100D10008D810E94A3030E94A3030E94A3030E944B
:100D2000A3038E810E94A3030E94A3038E810E94CD
:100D3000A3030E94A3030E94A3030E94A3038B8129
:100D40000E94A3030E94A303982F8B81192F1827B9
:100D50008B810E94A3030E94A3030E94A303182770
:100D60008C810E94A3030E94A3030E94A303982FD7
:100D70008C81892718278D810E94A303082F8D81DC
:100D80000E94A3030E94A30308278D810E94A3034E
:100D90000E94A3030E94A303802718278E810E942C
:100DA000A303982F8E81092F08278E810E94A30309
:100DB0000E94A3030E94A3038027412F48272F816D
:100DC000388589819A81880F991F880F991F820F12
:100DD000931F0296FC0140838B810E94A3030E9413
:100DE000A3038B810E94A3030E94A3030E94A30379
:100DF0000E94A3038C810E94A3038C810E94A30301
:100E00000E94A3030E94A3030E94A3038D810E945A
:100E1000A3038D810E94A3030E94A3038D810E94DE
:100E2000A3030E94A3030E94A3030E94A3038E8135
:100E30000E94A3030E94A3030E94A3030E94A30392
:100E40008B810E94A303982F8B81192F18278B81E8
:100E50000E94A3030E94A3030E94A30318278C816E
:100E60000E94A3030E94A303982F8C81092F0827B7
:100E70008C810E94A3030E94A3030E94A3038027E6
:100E800018278D810E94A3030E94A3030E94A3033D
:100E9000982F8D81892718278E810E94A303082F00
:100EA0008E810E94A3030E94A30308278E810E94C3
:100EB000A3030E94A3030E94A3038027412F482776
:100EC0002F81388589819A81880F991F880F991FF2
:100ED000820F931F0396FC01408389819A810196BA
:100EE0009A83898389819A8104970CF4BBCD000091
:100EF00028960FB6F894DEBF0FBECDBFDF91CF911D
:100F00001F910F910895CF93DF9300D000D0CDB7FC
:100F1000DEB79C838B83198235C01A822DC08A81EB
:100F2000282F30E08981882F90E04A81642F70E07B
:100F30004981442F50E0EB81FC81660F771F660FDB
:100F4000771F6E0F7F1F460F571FFA014081442FF6
:100F500050E040505E4FFA0160814B815C81220F6E
:100F6000331F220F331F240F351F820F931FFC01E5
:100F700060838A818F5F8A838A81843080F289814D
:100F80008F5F89838981843040F200000F900F9039
:100F90000F900F90DF91CF910895CF93DF9300D002
:100FA0001F92CDB7DEB79B838A838A819B81FC0128
:100FB000858589838A819B81FC0121858A819B812A
:100FC000FC0125878A819B81FC0125818A819B8187
:100FD000FC0121878A819B81FC0121818A819B817F
:100FE000FC0125838A819B812981FC0121838A81DF
:100FF0009B81FC01828189838A819B81FC012285FE
:101000008A819B81FC0122838A819B812981FC0149
:1010100022878A819B81FC01868189838A819B81C9
:10102000FC0126858A819B81FC0126838A819B8124
:101030002981FC0126878A819B81FC018381898328
:101040008A819B81FC0127818A819B81FC0123830A
:101050008A819B81FC0123858A819B81FC012783F6
:101060008A819B81FC0127858A819B81FC012387E2
:101070008A819B812981FC01278700000F900F90B6
:101080000F90DF91CF910895CF93DF9300D000D0E0
:101090001F92CDB7DEB79B838A837D836C831982D1
:1010A0002C813D818A819B81A901BC0180E00E9445
:1010B000730281E089838A819B810E94E2028A8196
:1010C0009B810E942C0389818A3089F08A819B81CF
:1010D0000E94BD032C813D818A819B81A901BC01B5
:1010E00089810E94730289818F5F8983E4CF000028
:1010F0002C813D818A819B81A901BC018AE00E94EB
:10110000730200000F900F900F900F900F90DF91DF
:10111000CF910895CF93DF9300D000D01F92CDB729
:10112000DEB79B838A837D836C8319822C813D810A
:101130008A819B81A901BC018AE00E94730289E037
:1011400089838A819B810E94CD078A819B810E942D
:1011500083072C813D818A819B81A901BC01898102
:101160000E9473028981882341F08A819B810E94B9
:101170002105898181508983E4CF000000000F9010
:101180000F900F900F900F90DF91CF910895CF9314
:10119000DF9300D000D0CDB7DEB79A8389837C83FC
:1011A0006B8329813A818B819C81B9010E9444081B
:1011B00000000F900F900F900F90DF91CF91089546
:1011C000CF93DF9300D000D0CDB7DEB79A83898369
:1011D0007C836B8329813A818B819C81B9010E9438
:1011E0008A0800000F900F900F900F90DF91CF9121
:1011F0000895CF93DF9300D000D01F92CDB7DEB714
:101200009B838A837D836C8319821FC08981882F89
:1012100090E02A813B81820F931F2981222F30E0A9
:101220004A815B81240F351FF90160812981222FBA
:1012300030E04C815D81240F351FF9012081262784
:10124000FC01208389818F5F898389818031F0F25D
:1012500000000F900F900F900F900F90DF91CF91A3
:101260000895CF93DF93CDB7DEB72A970FB6F894E2
:10127000DEBF0FBECDBF9E838D8378876F835A8775
:1012800049878D819E8180559F4F9C838B831A82D5
:1012900019821CC02B813C818F819885B9010E94E5
:1012A000F9082D813E818F819885B9010E944408FB
:1012B0008F8198859C838B838F81988540969887B2
:1012C0008F8389819A8140969A83898329813A8183
:1012D00089859A8528173907E8F28D819E81805586
:1012E0009F4F2B813C8140E150E0B9010E947A0A76
:1012F00000002A960FB6F894DEBF0FBECDBFDF9177
:10130000CF910895CF93DF93CDB7DEB768970FB62F
:10131000F894DEBF0FBECDBF9C8B8B8B7E8B6D8B0D
:10132000588F4F8B1A82198231C08D899E8920E196
:10133000FC01DE01139601900D922A95E1F72B89AD
:101340003C898D899E89B9010E948A088B899C8974
:101350009C0120553F4F8D899E89B9010E94F90853
:101360008B899C8980559F4F20E1FE013396DC01DB
:1013700001900D922A95E1F78D899E8940969E8B6A
:101380008D8B89819A8140969A83898329813A81BC
:101390008F89988D2817390740F2000068960FB69C
:1013A000F894DEBF0FBECDBFDF91CF910895CF93EC
:1013B000DF93CDB7DEB76A970FB6F894DEBF0FBEE6
:1013C000CDBF9E8B8D8B788F6F8B5A8F498F1A82F2
:1013D000198280E190E09C838B837AC08B819C8111
:1013E000409709F051C08D899E8980559F4F20E11B
:1013F000FC01DE01159601900D922A95E1F72D89E9
:101400003E89CE010596B9010E9444088FE090E024
:101410009C838B8333C02D893E898B819C81820F75
:10142000931F80559F4FFC0180818F3F81F42D8950
:101430003E898B819C81820F931F80559F4FFC01B9
:1014400010828B819C8101979C838B8317C02D898F
:101450003E898B819C81820F931F80559F4FFC0199
:10146000808141E0480F2D893E898B819C81820FCC
:10147000931F80559F4FFC01408304C08B819C814A
:1014800099234CF61C821B822F89388D89819A8181
:10149000820F931F4F89588D29813A81240F351F60
:1014A000F9016081AE014B5F5F4F2B813C81240FBE
:1014B000351FF90120812627FC01208389819A812B
:1014C00001969A8389838B819C8101969C838B836F
:1014D00029813A81898D9A8D2817390708F47ECFA2
:1014E00000006A960FB6F894DEBF0FBECDBFDF9145
:1014F000CF910895FB01DC0102C001900D92415093
:0A1500005040D8F70895F894FFCF8B
:10150A00637C777BF26B6FC53001672BFED7AB76B6
:10151A00CA82C97DFA5947F0ADD4A2AF9CA472C061
:10152A00B7FD9326363FF7CC34A5E5F171D83115CE
:10153A0004C723C31896059A071280E2EB27B275EF
:10154A0009832C1A1B6E5AA0523BD6B329E32F8467
:10155A0053D100ED20FCB15B6ACBBE394A4C58CF5F
:10156A00D0EFAAFB434D338545F9027F503C9FA833
:10157A0051A3408F929D38F5BCB6DA2110FFF3D201
:10158A00CD0C13EC5F974417C4A77E3D645D1973B5
:10159A0060814FDC222A908846EEB814DE5E0BDBAF
:1015AA00E0323A0A4906245CC2D3AC629195E479E6
:1015BA00E7C8376D8DD54EA96C56F4EA657AAE0840
:1015CA00BA78252E1CA6B4C6E8DD741F4BBD8B8ADB
:1015DA00703EB5664803F60E613557B986C11D9E41
:1015EA00E1F8981169D98E949B1E87E9CE5528DFB8
:1015FA008CA1890DBFE6426841992D0FB054BB16E4
:10160A0052096AD53036A538BF40A39E81F3D7FB6D
:10161A007CE339829B2FFF87348E4344C4DEE9CBB7
:10162A00547B9432A6C2233DEE4C950B42FAC34E2C
:10163A00082EA16628D924B2765BA2496D8BD125E2
:10164A0072F8F66486689816D4A45CCC5D65B69286
:10165A006C704850FDEDB9DA5E154657A78D9D842A
:10166A0090D8AB008CBCD30AF7E45805B8B345064A
:10167A00D02C1E8FCA3F0F02C1AFBD0301138A6B64
:10168A003A9111414F67DCEA97F2CFCEF0B4E67394
:10169A0096AC7422E7AD3585E2F937E81C75DF6E42
:1016AA0047F11A711D29C5896FB7620EAA18BE1BA8
:1016BA00FC563E4BC6D279209ADBC0FE78CD5AF44E
:1016CA001FDDA8338807C731B11210592780EC5F94
:1016DA0060517FA919B54A0D2DE57A9F93C99CEFF0
:1016EA00A0E03B4DAE2AF5B0C8EBBB3C83539961F1
:1016FA00172B047EBA77D626E169146355210C7D2F
:0C170A008D01020408102040801B3600F6
:00000001FF
